S0170000746872656164785F6578616D706C652E73726563D2
S3150000000020480020450200005D010000410200007A
S3150000001041020000410200004102000041020000CE
S315000000200000000000000000000000004102000087
S315000000304102000000000000ED1200006113000004
S315000000400000000000000000E914000000000000AD
S31500000050000000000000000000000000000000009A
S31500000060000000000000000000000000000000008A
S31500000070000000000000000000000000000000007A
S31500000080000000000000000000000000000000006A
S31500000090000000000000000000000000000000005A
S315000000A0000000000000000000000000000000004A
S315000000B0000000000000000000000000000000003A
S315000000C0000000000000000000000000000000002A
S315000000D0000000000000000000000000000000001A
S315000000E0000000000000000040F623020F4B995C60
S315000000F00F4A890709D540F622015B5C1BB193685C
S315000001000C4A136070471369FAE740F62001595C00
S31500000110890705D540F61901595C5368CB40EFE7CE
S3150000012040F61801595C1368F8E7C04600E0014044
S31500000130104000201C44002010B5034B8200D35809
S3150000014003B1984710BDC0464C430020024B8000C7
S31500000150195000207047C0464C430020F8B540F2C5
S31500000160401300240127084E084A758CD35A1D40B7
S315000001702B00E3403B4202D0E0B2FFF7DDFF013443
S31500000180092CF5D17586F8BDFE6000400060004080
S315000001901F22430910401E3A8240024960339B00E9
S315000001A05A50704700E100E0F7B5FF270192830837
S315000001B00A4A03269B009B183A0040F20035064087
S315000001C0F6008901B2403940B1405C598000944341
S315000001D00C435C51019A024B1A50F7BD00E100E056
S315000001E0744300201F22430910401E3A82400249F0
S315000001F09B005A507047C04600E100E010B504006D
S31500000200FFF7C6FF2000FFF7EDFF10BD1F224309D1
S3150000021010401E3A8240044920339B005A50BFF3D7
S315000002204F8FBFF36F8F704700E100E010B50400F9
S31500000230FFF7BAFF2000FFF7E1FF10BD7047C04689
S3150000024000BE704710B501F037FA00F07DFAFEE700
S31500000250FFFFFFFFFFFFFFFFFFFFFFFFFFFFFFFFA8
S31500000260FFFFFFFFFFFFFFFFFFFFFFFFFFFFFFFF98
S31500000270FFFFFFFFFFFFFFFFFFFFFFFFFFFFFFFF88
S31500000280FFFFFFFFFFFFFFFFFFFFFFFFFFFFFFFF78
S31500000290FFFFFFFFFFFFFFFFFFFFFFFFFFFFFFFF68
S315000002A0FFFFFFFFFFFFFFFFFFFFFFFFFFFFFFFF58
S315000002B0FFFFFFFFFFFFFFFFFFFFFFFFFFFFFFFF48
S315000002C0FFFFFFFFFFFFFFFFFFFFFFFFFFFFFFFF38
S315000002D0FFFFFFFFFFFFFFFFFFFFFFFFFFFFFFFF28
S315000002E0FFFFFFFFFFFFFFFFFFFFFFFFFFFFFFFF18
S315000002F0FFFFFFFFFFFFFFFFFFFFFFFFFFFFFFFF08
S31500000300FFFFFFFFFFFFFFFFFFFFFFFFFFFFFFFFF7
S31500000310FFFFFFFFFFFFFFFFFFFFFFFFFFFFFFFFE7
S31500000320FFFFFFFFFFFFFFFFFFFFFFFFFFFFFFFFD7
S31500000330FFFFFFFFFFFFFFFFFFFFFFFFFFFFFFFFC7
S31500000340FFFFFFFFFFFFFFFFFFFFFFFFFFFFFFFFB7
S31500000350FFFFFFFFFFFFFFFFFFFFFFFFFFFFFFFFA7
S31500000360FFFFFFFFFFFFFFFFFFFFFFFFFFFFFFFF97
S31500000370FFFFFFFFFFFFFFFFFFFFFFFFFFFFFFFF87
S31500000380FFFFFFFFFFFFFFFFFFFFFFFFFFFFFFFF77
S31500000390FFFFFFFFFFFFFFFFFFFFFFFFFFFFFFFF67
S315000003A0FFFFFFFFFFFFFFFFFFFFFFFFFFFFFFFF57
S315000003B0FFFFFFFFFFFFFFFFFFFFFFFFFFFFFFFF47
S315000003C0FFFFFFFFFFFFFFFFFFFFFFFFFFFFFFFF37
S315000003D0FFFFFFFFFFFFFFFFFFFFFFFFFFFFFFFF27
S315000003E0FFFFFFFFFFFFFFFFFFFFFFFFFFFFFFFF17
S315000003F0FFFFFFFFFFFFFFFFFFFFFFFFFFFFFFFF07
S31500000400FFFFFFFFF7AFC1FF44F2100044F21003F5
S31500000410C2F20000C2F2000310B5834205D040F2DA
S315000004200003C0F2000303B1984710BD44F2100068
S3150000043044F21003C2F20000C2F200031B1A9A1023
S31500000440D90F8918491010B529B140F20003C0F23E
S31500000450000303B1984710BD10B544F22804C2F258
S315000004600004237873B9FFF7CFFF40F20003C0F210
S3150000047000032BB141F65010C0F2000000E000BFAF
S315000004800123237010BDC04640F20003C0F20003F2
S3150000049010B54BB144F22C0141F65010C2F20001E6
S315000004A0C0F2000000E000BFFFF7C0FF10BDC0466D
S315000004B0F7B5244B1E88002E42D0002401255B6828
S315000004C00193EFF3108185F310881F4A106818B95D
S315000004D01E4B18704030187013680133136081F397
S315000004E01088002040F2040CFF2701994300C95AE6
S315000004F001300B0A1B0139405B18154F5B00D95BB5
S31500000500144F3940674621433943114FD953864228
S31500000510EAD8EFF3108185F31088136813B11368D6
S31500000520013B136012681AB9084B1A7080321A70B0
S3150000053081F31088084B6C40188800F0D5FAC0E7A4
S31500000540FEE7C046441900007043002040030A40FD
S3150000055000020A40FE3FFEFF0040002010B518B919
S315000005600122054B1A7010BD0228FCD1034904482C
S3150000057000F0B0FFF7E7C04690C07E40501800007C
S315000005801041002070B50024642532260B4B1888D4
S31500000590642807D1012C0CD11E80323800F0A4FA51
S315000005A00024F3E7322804D1012C02D11D80323019
S315000005B0F4E70134E4B200F097FAE7E700400020E0
S315000005C010B500F099F8FFF773FF10BD10B50F4A8C
S315000005D088B01368002401331360B0230693AF3B41
S315000005E00593049340F200430193094B094A009393
S315000005F00949230009480394029400F04FFD18B1FD
S315000006002100064800F053F808B010BDE84100206C
S3150000061020480020C10500001018000044400020BA
S3150000062010B51C2300220549054800F0C9FC18B185
S315000006300021034800F03BF810BDC0461E1800001C
S31500000640F440002010B5FFF7EBFF10BD10B500F029
S3150000065053F8FFF797FF10BD10B50F4A88B013681F
S31500000660002401331360B0230693AF3B0593049334
S3150000067040F200430193094B094A009309492300BC
S3150000068009480394029400F009FD18B121000648B8
S3150000069000F00DF808B010BDE8410020204C002005
S315000006A04D0600002C18000018410020704700BEBF
S315000006B07047FFFF70B500250B4B04001D600B4B08
S315000006C001221D700A491C230A4800F079FC18B162
S315000006D029000848FFF7EBFFFFF778FFFFF7BCFF9D
S315000006E02000FFF7E3FF70BDE8410020E441002051
S315000006F03C180000C8410020012110B50F484942AE
S3150000070000F0A6FC18B100210C48FFF7D0FF0C4BF7
S315000007101A7842B901321A70FFF794FF094C236820
S31500000720013B236003B910BD044800F0A9FC002872
S31500000730F5D000210148FFF7BAFFF0E7C8410020D5
S31500000740E4410020E841002010B500F009F800203F
S3150000075010BD10B500F096F900F0DAFB10BDFFFFF2
S3150000076070B50C4C0C4B22680C4D9A4208D0256093
S3150000077000F020FDFFF7EDFF094A1368013313600F
S31500000780084B25601868FFF795FF0023236000F0EB
S315000007909FFD70BD04400020F1F0F0F0F0F0F0F0A5
S315000007A000420020EC41002010B5EFF3108472B631
S315000007B01A4B826E9A422DD10300AC331B688B42D2
S315000007C028D1C36E33B3164A1968914222D11A69E9
S315000007D002B3002282661A69013A1A610AB9DA601E
S315000007E006E0416F026F51670A67D9688142F6D009
S315000007F0036B062B0ED103000D220833DA67094A74
S3150000080013680133136084F3108800F0CDF9EFF319
S31500000810108472B684F3108810BDC046A907000084
S31500000820414D45530042002070B504000E001500EE
S3150000083000211C2200F0A6FF6660A560EFF310857C
S3150000084072B60B4B0B4923600B680B4A43B9146015
S315000008506461A46101330B6085F31088002070BDCC
S315000008601268906994614461A0616261F2E7C046D2
S31500000870414D4553F0410020F441002070B5EFF39F
S31500000880108372B682682AB1013A826083F31088B7
S31500000890002070BD11B1184A14681CB183F310888A
S315000008A00D20F6E7154C164D24682600A566E06671
S315000008B0AC363568013535600569ADB9C460246765
S315000008C064670569013505610620E16411682063E6
S315000008D005380918A063116083F3108820000834D6
S315000008E000F0D4F9E06FD4E7C56825676E6F6667D8
S315000008F034676C67E5E7C046004200209842002056
S31500000900A9070000030070B5EFF3108172B6026903
S3150000091032B982680132826081F31088002070BD8E
S31500000920C068541E012A0FD1DC6002001C6100233E
S3150000093008328366D367074A13680133136081F36D
S31500000940108800F031F9E9E7026FDA60456F556704
S315000009502A67EAE700420020F7B504001700019174
S31500000960099AEF2108981E000A9D00F00BFFB0229D
S315000009700021200000F006FF019B6764A362089B2C
S31500000980A664E360099BE5626361230094331D60FE
S315000009900C9B2022A361E36123009C331A60099B10
S315000009A05F1E089BDE190B9B26619D4203D1230027
S315000009B09833E5631D6003232363294B20002949EF
S315000009C06365A46500F0D0FCEFF3108272B62000D8
S315000009D0254B264923600B68254D88302BBB2C60A0
S315000009E00460446001330B60224B196801311960C1
S315000009F00D99012926D1EFF3058100261E4B3500FE
S31500000A001B680B431D498B4206D91D4B1D682E00E2
S31500000A1015B1EB6AEE6BEB6382F31088200000F0F1
S31500000A20C3F805B1EE630020FEBD2D682F008C379C
S31500000A303E683C60370088373C6027008C373E6054
S31500000A400560CFE782F31088EFF3108172B61A685B
S31500000A50013A1A6081F3108800F078F8E3E7C0469F
S31500000A60E90D0000A10A0000445248548C420020BF
S31500000A70904200200042002004400020EFF0F0F0F9
S31500000A80944200202022044B1A60C723034A5B04C9
S31500000A9011680B431360704784420020F841002020
S31500000AA010B50E4B1C68636CA06C98470C4B1B680A
S31500000AB00BB120009847EFF3108172B60123236330
S31500000AC0A3630023074AE36413680133136081F3C9
S31500000AD01088200000F0DAF810BDC04698420020C9
S31500000AE0FC4100200042002070B5EFF3108272B680
S31500000AF0134B1B681BB982F31088132070BDEFF3EC
S31500000B0005841049096821430029F4D110B982F3FC
S31500000B101088F3E70C490D68002DECD104241C6302
S31500000B20033C9C631C000834E567D8640868013000
S31500000B30086082F31088180000F0A8F8E06FDDE77F
S31500000B409842002004400020004200200A4B1B6807
S31500000B508BB90A4B1A680A4B1B689A420BD0802243
S31500000B60084B52055A60EFF3058323B9EFF3108360
S31500000B7062B683F310887047004200209842002036
S31500000B809442002000ED00E08022064B52055A6098
S31500000B90EFF3058323B9EFF3108362B683F310886E
S31500000BA07047C04600ED00E0F8B50400EFF310858D
S31500000BB072B6436E73B34C3000F0ECF9254AA06B65
S31500000BC013682549013B1360236B00283AD1CBB14A
S31500000BD0636B002B31D12363E36A204E9F00B85923
S31500000BE028BBBC5101269E401D4F246238686462B2
S31500000BF0304338601B4806689E4203D90360086884
S31500000C0050B90C60184B1B6885F310880968994227
S31500000C1008D10BE0C364D1E7C06B9842F2D90C60EF
S31500000C2085F3108813680BB9FFF7AEFFF8BD436A6A
S31500000C301C62446263622062E4E700236363033359
S31500000C402363DFE7013B012BDCD9636B002BF4D177
S31500000C50A363F5E7004200209442002004420020EE
S31500000C608842002084420020984200208022064BC1
S31500000C7052055A60EFF3058323B9EFF3108362B68A
S31500000C8083F310887047C04600ED00E0F7B5374B98
S31500000C9004001E68EFF3108772B686420AD1F36C21
S31500000CA0013B033303D830004C3000F049F9E269C8
S31500000CB02F4B1A602F4DA26B2B68013B2B60012A2C
S31500000CC04DD140F2000C6346A363E36A0193019998
S31500000CD0236A89009C4213D0626A5A621362264ACA
S31500000CE05258A24201D1244A5350244A1368A342BF
S31500000CF035D1234B20491B689B00CB5813600FE06E
S31500000D0060461D4B58501100019B99401D4B1868B9
S31500000D108843186058B92022194B1A60174B18607F
S31500000D2087F310882B680BB9FFF7A0FFF7BD1F21CB
S31500000D30430801914BB9019B9840202310B100F064
S31500000D4003FDC3B20E4A1360CFE7410018001040FE
S31500000D500143080001995B0801390191EAE787F32D
S31500000D601088064B1B68B342DCD1DFE798420020AF
S31500000D70A0420020004200200442002094420020AD
S31500000D80844200208842002010B5114B1B68EFF307
S31500000D90108472B600210F4A1160ABB11A6B9AB972
S31500000DA0DA690D49186A9A610A6098420CD0DA6AC3
S31500000DB0DB6B9A4208D1094B09491B6892009B00DC
S31500000DC050505A58074B1A6084F3108810BDC0461D
S31500000DD0984200203C430020A0420020844200208C
S31500000DE0044200209442002010B5EFF3108272B640
S31500000DF0036B042B08D109490B6801330B6082F39E
S31500000E001088FFF7D1FE10BD0100AC31836E096872
S31500000E1082F31088002BF6D09847F4E700420020B2
S31500000E20F0B585B0EFF3108572B6334F3B6801938A
S31500000E3023BB324E33680BB301233B60304B19683A
S31500000E400A6802920AB102A8906100220A602D493E
S31500000E501A68096804321A608A4202D12A4A12685C
S31500000E601A600023336085F31088EFF3108572B69D
S31500000E70029C3CB93368002BE0D13B6085F31088B7
S31500000E8005B0F0BD0022236903929C4224D062691A
S31500000E905A61136102AA9A6102932368202B1DD915
S31500000EA0203B236003ABA361002324610394174A0C
S31500000EB0146085F310880BB101989847EFF31085FD
S31500000EC072B60022114B1A60039BA342D0D12000B8
S31500000ED0A26100F035F8CBE70023DDE7E268A368FE
S31500000EE001926268226022B103AAA261246103947E
S31500000EF0DDE7A261DBE7C046A4420020AC42002049
S31500000F00B0420020B4420020B8420020A84200208F
S31500000F10054B064A1360064A1360064B064A1360E1
S31500000F200022064B1A607047BC420020B8420020DF
S31500000F30B04200203C430020B4420020A4420020DE
S31500000F4003685A1E033217D88269AAB9202B00D922
S31500000F502023013B9A000C4B1B689B180B4A126816
S31500000F609A4203D89B1A0A4A1268D3181A6822B9F9
S31500000F700061406118608361704751690861506182
S31500000F8002614161F7E7C046B0420020B44200204A
S31500000F90B842002083694BB10269904207D11A68B2
S31500000FA0824201D100221A600023836170474169A1
S31500000FB051610A6119688142F6D19361F3E7FFFF37
S31500000FC0F8B504000D00160008B90C20F8BD1C2B5E
S31500000FD0FBD1EFF3108172B6184B1A6801321A6012
S31500000FE081F31088164A1768164A11680022914242
S31500000FF001D0A7421FD1EFF3108172B61A68013AE9
S315000010001A6081F31088FFF7A1FDA742DDD0EFF348
S3150000101005810D4A13680B433BB1EFF30581136855
S315000010200A4A13200B439342D0D9320029002000EC
S31500001030FFF7FAFBCAE77F690132D8E700420020D2
S31500001040F4410020F041002004400020EFF0F0F0D1
S31500001050030010B50C2073B1074A1C6894420AD1EC
S3150000106031B1EFF30580054A12680243042012B934
S315000010701800FFF703FC10BD414D45530440002006
S315000010800C2310B530B1044A0168914202D1FFF732
S3150000109039FC0300180010BD414D4553F0B58DB025
S315000010A00600129D0A9108920B9310B90E200DB0FE
S315000010B0F0BD189BB02BF9D1EFF3108172B6384B07
S315000010C01A6801321A6081F31088364A40F2010C20
S315000010D01768139A013AAA180792334A12680992B6
S315000010E0002211000998904201D0B74241D1EFF396
S315000010F0108172B61A68013A1A6081F31088FFF7F8
S3150000110025FDB742D2D00320002DD0D0089B002B5E
S31500001110CDD0139B0230C72BC9D9149B0A301F2B85
S31500001120C5D8159A09309342C1D3179B0838012BAD
S31500001130BDD8EFF305811D4A13680B433BB1EFF3AE
S31500001140058113681A4A0B4303309342AFD9179BA4
S3150000115030000593169B089A0493159B0A990393EE
S31500001160149B00950293139B01930B9BFFF7F4FBD3
S315000011709DE70129BBD0F868A84204D83C69AC4277
S3150000118001D961460025079CA04204D83869A042CF
S3150000119001D96146002588373F680132A2E7C0467B
S315000011A000420020904200208C4200200440002093
S315000011B0EFF0F0F072B6194B194A80211360194B03
S315000011C049041A68184B1A60184B1A686423B2FB54
S315000011D0F3F2013A164B8A420CD2C020154900069A
S315000011E04A601A6A1202120A02431A6200228A60CE
S315000011F007320A60C0211A6A09061202120A1A6226
S31500001200DA691202120A0A43DA61196A0A4A1140B5
S31500001210C02212040A431A627047C04624500020B6
S31500001220EC410020000000009C4200201C440020ED
S3150000123000ED00E010E000E0FFFF00FFF0B540F633
S31500001240600140F6FE041A4D1A4E72B628683060E8
S3150000125040BB194B194A585A80B21080108800B208
S31500001260002809DA185B164F80B238601548185303
S3150000127010884004400C5852BFF34F8F30BFBFF365
S315000012806F8F108800B2002808DA128892B25A527C
S315000012900B4A10680C4A024392B21A5362B6BFF365
S315000012A06F8FD2E78022094B12055A6062B6F0BDF5
S315000012B0944200209842002000E00140484300206C
S315000012C04443002002A5FFFF00A5FFFF00ED00E05C
S315000012D00022044B1A6062B68022034B52055A6004
S315000012E0FEE7C0460042002000ED00E01848016815
S315000012F0002927D0EFF30983103BF0C344464D463F
S3150000130056465F46203BF0C3103B8B60114C23686A
S3150000131013B18B61002323600F4E3668A6B10660B9
S31500001320706801307060B0692060B3680B498E4602
S31500001330F0CBBB46B246A946A046F0CB83F309885C
S315000013407047FEE7034CE7E7FFF778FF0646E7E757
S3150000135098420020A042002094420020FDFFFFFF9B
S3150000136010B500F019F810BD072270B50469030026
S315000013709443200040380D00986000212D3200F083
S3150000138001FA230001220C3B52425D601A60802361
S31500001390043C5B04236070BD10B51D4A1D4C1368E8
S315000013A0013313601C4A136823B1013B13600BB968
S315000013B001332360194A1A4913681868A0B101233A
S315000013C00B6022680B68CAB9CBB9164B1B6853B1C0
S315000013D0154A1268934206D0144B1B681BB980222B
S315000013E0134B52055A6010BD12480433006813604F
S315000013F08342E6D1104B1B681360E2E723B1FFF787
S315000014000FFD2368002BE0D0FFF7BEFCDDE7C046EA
S31500001410404300203C430020A0420020B042002070
S31500001420AC42002094420020984200200042002056
S3150000143000ED00E0B4420020B8420020EFF3108037
S31500001440012383F31088064B196819B9054A1170F0
S31500001450403111701A6801321A6080F310887047A3
S315000014607043002040030A40EFF31081012383F309
S315000014701088074B1A6812B11A68013A1A601A687E
S315000014801AB9044B1A7080321A7081F310887047AB
S315000014907043002040030A4070B50400FFF7CEFFFA
S315000014A00022FF200A4D2388934202D8FFF7DCFF73
S315000014B070BD6168D300C9188E880968330A1B019C
S315000014C006409B1989B25B000132595392B2EAE792
S315000014D000020A4010B5034B03600800FFF7DCFF6B
S315000014E0002010BD54524F5007B5EFF30383103B55
S315000014F0064A5BB29B009B583BB19A682AB1597960
S31500001500DB68684601910093904707BD744300204D
S3150000151040F20A2230B50F4B995C8909814218D0F6
S3150000152040F20B2401211D5D29431955022805D0DF
S31500001530995C8909022901D08021995440F20A2236
S3150000154040F20B218001C0B2985401205A5C8243BC
S315000015505A5430BD00C07E40F8B540F62305012739
S31500001560214C665DBE436655665DB607F70FBC4601
S31500001570002EF9DB0127B84224D840F62105665D26
S31500001580BE436655665DB607FCD4012640F62005C7
S3150000159088B9605DB0436055605D8007FCD440F655
S315000015A01800215440F61901625440F61A02A35459
S315000015B0FEF79AFDF8BD615D0E436655615D8907CC
S315000015C0FCD5EFE740F6220102280AD16754012133
S315000015D0605D014340F623006155215C8907FCD517
S315000015E0E0E760466054F2E700E001407047FFFF25
S315000015F040F6FE0370B5264A264C0025E252264BDD
S31500001600264ADD601A60264A5A6048F200029A604D
S315000016101A61FEF769FD40F600031A2240F624011E
S31500001620E254635C8BB11F4B1F48DA680240DA60F4
S31500001630DA687F261D48C27A3240C2728022D86894
S3150000164012040243DA60DB68655440F60C03E25C80
S31500001650C2B10022E2540320FFF75AFF002240F6EF
S315000016600803E25440F61202A35CDB07FCD5002314
S315000016701A0019001800FFF76FFF40F6FE030C4A28
S31500001680E25270BD40F2E830FFF7B0FFE3E7C04634
S3150000169003A5FFFF00E00140104000200048E801DC
S315000016A000093D00FC6F0440FFFF7FFF002C0A404D
S315000016B000A5FFFF7047FFFF70B50025184B194ABC
S315000016C000209A60FEF74AFFFFF792FF0120FEF71F
S315000016D045FF1548154A0021121A00F053F8144820
S315000016E0144A1549121A00F055F8144C144BE41A12
S315000016F0A410A5420CDBFEF7F7FCFFF7DBFF022088
S31500001700FEF72CFFFEF79AFD002000F01BF870BDD7
S315000017100B4AAB009B181B6898470135E9E7C046A2
S3150000172000ED00E0000000002840002020440020DA
S315000017300040002010400020541900000C400020FA
S31500001740084000207047FFFF1C2101231B0498421C
S3150000175001D3000C10391B0A984201D3000A08393C
S315000017601B09984201D30009043902A2105C4018F3
S315000017707047C04604030202010101010000000097
S315000017800000000003008218934200D170471970D0
S315000017900133F9E7002310B59A4200D110BDCC5CA5
S315000017A0C4540133F8E7FFFF4275696C742077690A
S315000017B074682052656E6573617320416476616E4C
S315000017C063656420466C657869626C6520536F6654
S315000017D07477617265205061636B61676520766519
S315000017E07273696F6E20352E352E3000352E352EEC
S315000017F03000000000000505F8B5C046F8BC08BC7E
S315000018009E467047F8B5C046F8BC08BC9E46704771
S31500001810426C696E6B792054687265616400535737
S31500001820312053656D6170686F7265004C454420C8
S315000018305261746520546872656164004653502095
S31500001840436F6D6D6F6E20496E69742053656D0030
S315000018501D0000005C1800000000000004000000ED
S31500001860080000000400000009000000000000005D
S315000018700A000000008000000B000000008000004D
S315000018800C000000008000000D0000000080000039
S315000018900E000000004000000F00000010000000D5
S315000018A0000100001000000001010000100000000F
S315000018B0020100001000000003010000000100000A
S315000018C008010000100000000901000010000000DF
S315000018D00A010000100000000C010000004000009A
S315000018E000020000100000000102000000000000DD
S315000018F006020000000200000702000004020000C9
S3150000190008020000000400000C02000004040000AD
S315000019100D020000000000000E02000000000000A2
S315000019200F02000000010000000300000401000097
S3150000193007040000400000000D0900004000000000
S315000019400E090000020000004C1900000800090002
S30900001950000000008D
S3150000195464000000F0F0F0F089040000590400006F
S31501010018FFFFFFFFFFFFFFFFFFFFFFFFFFFFFFFFE0
S31101010028FFFFFFFFFFFFFFFFFFFFFFFFD0
S70500000245B3
